:10F000000C943E780C945B780C945B780C945B7851
:10F010000C945B780C945B780C945B780C945B7824
:10F020000C945B780C945B780C945B780C945B7814
:10F030000C945B780C945B780C945B780C945B7804
:10F040000C945B780C945B780C945B780C945B78F4
:10F050000C94C27A0C945B780C945B780C945B787B
:10F060000C945B780C945B780C945B780C945B78D4
:10F070000C945B780C945B780C945B7811241FBE25
:10F08000CFEFD0E1DEBFCDBF12E0A0E0B1E0E2E81B
:10F09000F9EF02C005900D92A038B107D9F722E030
:10F0A000A0E8B2E001C01D92AD3EB207E1F70E94B8
:10F0B000177A0C94BF7C0C94007898B19F70282F1D
:10F0C000207F922B98B94298439A36E03A95F1F70F
:10F0D00000C043989DE09A95F1F7000028B12F7089
:10F0E00030E1839FC0011124822B88B9439A86E0C6
:10F0F0008A95F1F700C043988FE097E20197F1F706
:10F1000000C0000008952FE58AEE90E02150804075
:10F110009040E1F700C0000082E00E945D7888E244
:10F120000E945D788CE00E945D7886E00E945D78A8
:10F1300081E00E945D788FE097E20197F1F700C0CF
:10F1400000000895FC019081992349F128B12F70A6
:10F15000907F922B98B9429A439A82E48A95F1F76C
:10F1600000C0439895E89A95F1F7000048B1919155
:10F1700080E1989F90011124942F9F70292B28B92A
:10F18000439A92E49A95F1F700C0439889EF90E092
:10F190000197F1F700C0000090819111D7CF089539
:10F1A0008CB58D658CBD8CB583608CBD8CB58F7D29
:10F1B0008CBD8CB58F778CBD2C9A2B9A0895CF92ED
:10F1C000DF92EF92FF920F931F936C01EE24FF24C6
:10F1D000072F182F292F3327299852E05EBD0DB431
:10F1E00007FEFDCFCEBC0DB407FEFDCF0EBD0DB4A6
:10F1F00007FEFDCF6EBD0DB407FEFDCF4EBD0DB4B5
:10F2000007FEFDCF299A1F910F91FF90EF90DF909D
:10F21000CF900895CF92DF92EF92FF920F931F93BA
:10F220006C01EE24FF24072F182F292F332729984C
:10F2300043E04EBD0DB407FEFDCFCEBC0DB407FEBE
:10F24000FDCF0EBD0DB407FEFDCF6EBD0DB407FEA4
:10F25000FDCF8FEF8EBD0DB407FEFDCF8EB5299A81
:10F260001F910F91FF90EF90DF90CF9008959093B2
:10F27000C5008093C400E1ECF0E080818860808369
:10F28000808180618083808180688083A0ECB0E091
:10F290008C9180688C938EE08093C200808180691D
:10F2A000808383B7817F83BF0895CF93DF93DC0191
:10F2B000EC0120E030E0FD0101900020E9F73197FA
:10F2C000EA1BFB0BE217F30751F089919091C00004
:10F2D00095FFFCCF8093C6002F5F3F4FECCFDF91AF
:10F2E000CF9108956F927F928F929F92AF92BF922B
:10F2F000CF92DF92EF92FF920F931F93CF93DF9302
:10F30000F89481E180935700E895C12CD12C7601C7
:10F3100003E0D1E015E007B600FCFDCFF999FECF80
:10F320003601F60100935700E89507B600FCFDCFC3
:10F3300046015701FFEF9F1AAF0ABF0AC701B60186
:10F340000E940A79C82FC701B6016F5F7F4F8F4FA8
:10F350009F4F0E940A792C2F30E0A901582BCA0137
:10F3600007B600FCFDCFF999FECFF6010C01D09352
:10F370005700E8951124F2E0CF0ED11CE11CF11CDE
:10F380008C149D04AE04BF04C9F607B600FCFDCF83
:10F39000F999FECFF30110935700E89507B600FCEA
:10F3A000FDCF8114F0EF9F06A104B10419F075019F
:10F3B0006401B1CF81E180935700E8952FE74AE1DE
:10F3C00056E0215040405040E1F700C0000081E08D
:10F3D0000E945D7885E88A95F1F7000080E80E9438
:10F3E0005D7880E80E945D7886E091E00E94A278D6
:10F3F00080EC0E945D7885E191E00E94A2789FEF09
:10F40000E8E0FDE39150E040F040E1F700C000008B
:10F41000DF91CF911F910F91FF90EF90DF90CF90F0
:10F42000BF90AF909F908F907F906F90089510B88D
:10F430008FE081B912B88EEB84B98EE78AB98EEF6E
:10F4400087B98FEB85B918B88DE082B985E190E076
:10F450000E9437790E94D0780E9483782FE784E851
:10F460009EE1215080409040E1F700C00000789478
:10F4700085E190E00E94377980B1807180B988235E
:10F4800009F478C09FB785B7282F216025BF826017
:10F4900085BF9FBF80E80E945D7885E291E00E9471
:10F4A000A27880EC0E945D7889E391E00E94A278C6
:10F4B00008C060E071E08DEC92E00E94B67C892B80
:10F4C000A1F16EE672E083ED92E00E94B67C892B9A
:10F4D00081F72FEF84E39CE0215080409040E1F7DA
:10F4E00000C0000088E692E00E94557981E1EBE9D6
:10F4F000F1E0A3EDB2E001900D928A95E1F780E88A
:10F500000E945D788FE491E00E94A27880EC0E94D6
:10F510005D7883E691E00E94A27860E071E08DEC76
:10F5200092E00E94B67C892B61F62FEF84E39CE089
:10F53000215080409040E1F700C0000083E692E057
:10F540000E94557986E0E6EAF1E0ADECB2E0019088
:10F550000D928A95E1F780E80E945D7887E791E057
:10F560000E94A27880EC0E945D7889E891E00E9478
:10F57000A278A7CFE0918002F0918102099580E006
:10F5800090E008951F920F920FB60F921124EF9200
:10F59000FF920F931F932F933F934F935F936F931C
:10F5A0007F938F939F93AF93BF93CF93DF93EF930B
:10F5B000FF938091C00087FFFCCF8091C6008093AD
:10F5C000EC028091EC02813209F446C08091EC0299
:10F5D0008A3309F450C08091EC028F3309F4E9C0FA
:10F5E0008091EC02833709F444C18091EC028B32A4
:10F5F00009F46BC18091EC028D3209F47DC18091D8
:10F60000EC02873709F47BC18091EC02853769F4FD
:10F61000EDECF2E08091C00087FFFCCF8091C60046
:10F62000819382E0E23DF807A9F7FF91EF91DF9126
:10F63000CF91BF91AF919F918F917F916F915F918A
:10F640004F913F912F911F910F91FF90EF900F904D
:10F650000FBE0F901F901895E3EDF2E023EE32E01D
:10F660008091C00087FFFCCF8091C60081932E1748
:10F670003F07B1F7DACF8091830290918402A09185
:10F680008502B09186020196A11DB11D809383026F
:10F6900090938402A0938502B09386028091C0006B
:10F6A00087FFFCCF1091C60085E0810F10938D027B
:10F6B000C82FD0E0823088F021E030E08091C00097
:10F6C00087FFFCCF8091C600F901E357FD4F80838F
:10F6D0002F5F3F4FC217D30789F780918702909120
:10F6E0008802A0918902B0918A0288379105A1050C
:10F6F000B10509F467C008F4C8C0803F9105A105B1
:10F70000B10509F4E6C0883621E09207A105B105EC
:10F7100009F067C081E090E0A0E0B0E0809387024C
:10F7200090938802A0938902B0938A029E0121508F
:10F730003109F901E357FD4F7081121613060CF0E1
:10F7400013C180E090E040E050E0FC01E357FD4F42
:10F750006081460F511D019682179307B1F74195BD
:10F76000741709F442C010928B0280E80E945D7801
:10F7700086EF91E00E94A27880EC0E945D788CE098
:10F7800092E00E94A2789FE72AE186E09150204013
:10F790008040E1F700C000001092870210928802BA
:10F7A0001092890210928A0281E292E00E945579B9
:10F7B0003CCF80918B02811157C081E292E00E9480
:10F7C000557933CF80EC0E945D7880ED91E00E9406
:10F7D000A2788091870290918802A0918902B091CD
:10F7E0008A020196A11DB11D99CF81E080938B0201
:10F7F0001123D1F1E12EF12C84E0E80EF11C04E09C
:10F8000010E0E801C357DD4F48816091E402709138
:10F81000E5028091E6029091E7020E94DF78609114
:10F82000E4027091E5028091E6029091E7020E9465
:10F830000A7998818913E8CF8091E4029091E502DA
:10F84000A091E602B091E7020196A11DB11D80933F
:10F85000E4029093E502A093E602B093E7020F5F03
:10F860001F4FE016F10669F683EF91E00E9455798B
:10F87000DCCE1092E8021092E9021092EA02109295
:10F88000EB0281E080938202D0CE81309105A10508
:10F89000B10509F0A6CF80E80E945D788CEA91E07E
:10F8A0000E94A27880EC0E945D788EEB91E00E942D
:10F8B000A2788091870290918802A0918902B091EC
:10F8C0008A020196A11DB11D29CF81E080938C028F
:10F8D000ACCE80EC0E945D7882EE91E00E94A2782E
:10F8E0008091870290918802A0918902B0918A024A
:10F8F0000196A11DB11D12CF10928C0296CE81E00F
:10F900000E945D7895E89A95F1F7000080E80E94E2
:10F910005D7880E80E945D7884E292E00E94A2789F
:10F920002FE789EB9AE2215080409040E1F700C038
:10F93000000081E00E945D7825E82A95F1F700003B
:10F9400080E80E945D7880E80E945D7888E392E01C
:10F950000E94A27880EC0E945D788DE492E00E9483
:10F96000A2780E94727961CE40E0FACEFB01DC0100
:10F970008D91019080190110D9F3990B0895F89495
:02F98000FFCFB7
:10F98200706461746500706C656173652072657383
:10F9920074617274006C6F72647970686F6E20208B
:10F9A2002020202000757064617465722072656188
:10F9B2006479202020202020007374617274206CEE
:10F9C2006F7264796C696E6B202020202020006C9D
:10F9D2006F7264796C696E6B2020202020202020B9
:10F9E200202000636F6E6E656374656420202020A2
:10F9F2002020202020200075706461746572202010
:10FA0200202020202020202000656E61626C656429
:10FA12002020202020202020202000202020202004
:10FA220020202020202020202020200072656164D8
:10FA3200696E672066696C65202020202000706C4A
:10FA42006561736520776169742020202020200081
:10FA52002020706C656173652077616974202020B5
:10FA6200200020202020706C656173652077616919
:10FA72007420006F6B00636865636B73756D20653E
:10FA820072726F7221202020202020007472796906
:10FA92006E6720616761696E2E2E2E2E2E2E20201B
:10FAA2000065720066696C6520636F6D706C6574C9
:10FAB20065202020202020006275726E696E67200A
:10FAC200666C6173682020202020202000646F6E05
:10FAD2002774207475726E206F66662020202020A5
:10FAE20020200073757265006C6F7264790077680C
:10FAF2006F5F69735F74686572653F202020000044
:0400000500800280F5
:00000001FF
