S0170000426F6F746C6F6164657250726F746F2E73726563EE
S113F0000C943E780C945B780C945B780C945B784D
S113F0100C945B780C945B780C945B780C945B7820
S113F0200C945B780C945B780C945B780C945B7810
S113F0300C945B780C945B780C945B780C945B7800
S113F0400C945B780C945B780C945B780C945B78F0
S113F0500C94157B0C945B780C945B780C945B7823
S113F0600C945B780C945B780C945B780C945B78D0
S113F0700C945B780C945B780C945B7811241FBE21
S113F080CFEFD0E1DEBFCDBF13E0A0E0B1E0EEE70B
S113F090FAEF02C005900D92A430B107D9F723E02E
S113F0A0A4E0B3E001C01D92A137B207E1F70E94CA
S113F0B0167A0C943D7D0C94007898B19F70282F9B
S113F0C0207F922B98B94298439A36E03A95F1F70B
S113F0D000C043989DE09A95F1F7000028B12F7085
S113F0E030E1839FC0011124822B88B9439A86E0C2
S113F0F08A95F1F700C043988FE097E20197F1F702
S113F10000C0000008952FE58AEE90E02150804071
S113F1109040E1F700C0000082E00E945D7888E240
S113F1200E945D788CE00E945D7886E00E945D78A4
S113F13081E00E945D788FE097E20197F1F700C0CB
S113F14000000895FC019081992349F128B12F70A2
S113F150907F922B98B9429A439A82E48A95F1F768
S113F16000C0439895E89A95F1F7000048B1919151
S113F17080E1989F90011124942F9F70292B28B926
S113F180439A92E49A95F1F700C0439889EF90E08E
S113F1900197F1F700C0000090819111D7CF089535
S113F1A08CB58D658CBD8CB583608CBD8CB58F7D25
S113F1B08CBD8CB58F778CBD2C9A2B9A0895CF92E9
S113F1C0DF92EF92FF920F931F936C01EE24FF24C2
S113F1D0072F182F292F3327299852E05EBD0DB42D
S113F1E007FEFDCFCEBC0DB407FEFDCF0EBD0DB4A2
S113F1F007FEFDCF6EBD0DB407FEFDCF4EBD0DB4B1
S113F20007FEFDCF299A1F910F91FF90EF90DF9099
S113F210CF900895CF92DF92EF92FF920F931F93B6
S113F2206C01EE24FF24072F182F292F3327299848
S113F23043E04EBD0DB407FEFDCFCEBC0DB407FEBA
S113F240FDCF0EBD0DB407FEFDCF6EBD0DB407FEA0
S113F250FDCF8FEF8EBD0DB407FEFDCF8EB5299A7D
S113F2601F910F91FF90EF90DF90CF9008959093AE
S113F270C5008093C400E1ECF0E080818860808365
S113F280808180618083808180688083A0ECB0E08D
S113F2908C9180688C938EE08093C2008081806919
S113F2A0808383B7817F83BF0895DC0180E0282FAA
S113F2B030E0FD0101900020E9F73197EA1BFB0BD8
S113F2C02E173F0761F0FD01E20FF31F208190919B
S113F2D0C00095FFFCCF2093C6008F5FE8CF089550
S113F2E06F927F928F929F92AF92BF92CF92DF9252
S113F2F0EF92FF920F931F93CF93DF93F89481E1E2
S113F30080935700E895C12CD12C760103E0D1E01D
S113F31015E0A89507B600FCFDCFF999FECF36019C
S113F320F60100935700E89507B600FCFDCF4601AF
S113F3305701FFEF9F1AAF0ABF0AC701B6010E9427
S113F3400A79C82FC701B6016F5F7F4F8F4F9F4F58
S113F3500E940A792C2F30E0A901582BCA0107B664
S113F36000FCFDCFF999FECFF6010C01D0935700B4
S113F370E8951124F2E0CF0ED11CE11CF11C8C1491
S113F3809D04AE04BF04C9F607B600FCFDCFF9998D
S113F390FECFF30110935700E89507B600FCFDCFAC
S113F3A08114F0EF9F06A104B10419F07501640102
S113F3B0B0CF81E180935700E8952FE74AE156E00A
S113F3C0215040405040E1F700C0000081E00E941D
S113F3D05D7885E88A95F1F7000080E80E945D7801
S113F3E080E80E945D7886E091E00E94A27880EC3B
S113F3F00E945D788BE191E00E94A2789FEFE8E0A3
S113F400FDE39150E040F040E1F700C00000DF91DF
S113F410CF911F910F91FF90EF90DF90CF90BF900D
S113F420AF909F908F907F906F900895F894A895D7
S113F430809160008861809360008EE48093600016
S113F440789410B88FE081B912B88EEB84B98EE746
S113F4508AB981E08BB98EEF87B98FEB85B918B87B
S113F4608DE082B98AE090E00E9437790E94D078DA
S113F4700E9483782FE784E89EE1215080409040E9
S113F480E1F700C000007894A89580B1807180B93C
S113F490882309F4C2C0F8949FB785B7282F216048
S113F4A025BF826085BF9FBF789480E80E945D7805
S113F4B080E391E00E94A27880EC0E945D7884E46D
S113F4C091E00E94A2782FEF88E09DE321508040D4
S113F4D09040E1F700C0000080E80E945D7886E576
S113F4E091E00E94A27880EC0E945D788AE691E027
S113F4F00E94A27816C02FE78AE196E0215080404E
S113F5009040E1F700C0000060E071E081E593E025
S113F5100E94347D892BC1F180911003813009F45C
S113F5205CC0A89580B1807180B9811160C063EF1F
S113F53072E087E593E00E94347D892BE1F62FEF9A
S113F54084E39CE0215080409040E1F700C000003B
S113F5508DEE92E00E94557981E1E5E4F1E0A7E5C2
S113F560B3E001900D928A95E1F780E80E945D78FE
S113F5708DEA91E00E94A27880EC0E945D7881EC93
S113F58091E00E94A278B7CF2FEF84E39CE0215052
S113F59080409040E1F700C0000088EE92E00E94B5
S113F5A0557986E0E0E5F1E0A1E5B3E001900D9244
S113F5B08A95E1F780E80E945D7885ED91E00E94EC
S113F5C0A27880EC0E945D7887EE91E00E94A27898
S113F5D080911003813009F0A4CF0E947079F894CF
S113F5E085B7982F916095BF8D7F85BFFFCF80E849
S113F5F00E945D7880E891E00E94A27880EC0E94ED
S113F6005D7886E991E00E94A278F89485B7982FF6
S113F610916095BF8D7F85BFFFCFE0910403F0918A
S113F6200503099580E090E008951F920F920FB6AC
S113F6300F921124EF92FF920F931F932F933F93F6
S113F6404F935F936F937F938F939F93AF93BF93E6
S113F650CF93DF93EF93FF938091C00087FFFCCF9C
S113F6608091C6008093700380917003813279F198
S113F670809170038A33D1F1809170038F3309F440
S113F680D9C080917003833709F44EC1809170030F
S113F690873709F4AAC180917003853709F4D3C070
S113F6A0FF91EF91DF91CF91BF91AF919F918F9196
S113F6B07F916F915F914F913F912F911F910F9186
S113F6C0FF90EF900F900FBE0F901F901895E7E5F5
S113F6D0F3E027E633E08091C00087FFFCCF809100
S113F6E0C60081932E173F07B1F7DACF8091070345
S113F6F090910803A0910903B0910A030196A11DFA
S113F700B11D8093070390930803A0930903B0935A
S113F7100A038091C00087FFFCCF1091C60085E0EA
S113F720810F10931103C82FD0E0823088F021E0BC
S113F73030E08091C00087FFFCCF8091C600F901C2
S113F740EF5EFC4F80832F5F3F4FC217D30789F7CB
S113F75080910B0390910C03A0910D03B0910E03C3
S113F760883C9105A105B10509F4EAC008F4BDC0BF
S113F770803921E09207A105B10509F423C1843F32
S113F78021E09207A105B10509F4FDC08C3221E006
S113F7909207A105B10509F4E6C00196A11DB11DAA
S113F7A080930B0390930C03A0930D03B0930E036B
S113F7B09E0121503109F901EF5EFC4F7081121650
S113F7C013060CF04FC180E090E040E050E0FC01F3
S113F7D0EF5EFC4F6081460F511D019628173907D3
S113F7E0B1F741957417E9F110920F0380E80E9474
S113F7F05D7881E692E00E94A27880EC0E945D78B8
S113F80087E792E00E94A2789FE72AE186E0915080
S113F81020408040E1F700C0000010920B031092DA
S113F8200C0310920D0310920E038DE892E00E94D7
S113F830557936CF80910F03811152C08DE892E043
S113F8400E9455792DCFE1E5F3E08091C00087FF58
S113F850FCCF8091C600819383E0E635F807A9F7D1
S113F8601FCF81E080930F031123D1F1E12EF12CFE
S113F87084E0E80EF11C04E010E0E801CF5EDC4F08
S113F8804881609168037091690380916A03909143
S113F8906B030E94DF786091680370916903809123
S113F8A06A0390916B030E940A7998818913E8CFC7
S113F8B08091680390916903A0916A03B0916B03EE
S113F8C00196A11DB11D8093680390936903A093D1
S113F8D06A03B0936B030F5F1F4FE016F10669F6DE
S113F8E08EE592E00E945579DBCE81309105A10529
S113F8F0B10509F44DC084369105A105B10509F09F
S113F9004CCF80EC0E945D788BE192E00E94A2785B
S113F91080910B0390910C03A0910D03B0910E0301
S113F9200196A11DB11D3CCF10926C0310926D0382
S113F93010926E0310926F0381E080930603B0CEA1
S113F94080EC0E945D788BE292E00E94A278809124
S113F9500B0390910C03A0910D03B0910E0301963B
S113F960A11DB11D1DCF80EC0E945D788CE392E057
S113F9700E94A27880910B0390910C03A0910D0337
S113F980B0910E030ACF81E090E0A0E0B0E008CF90
S113F99080E80E945D7889EF91E00E94A27880EC73
S113F9A00E945D788CE092E00E94A27880910B0323
S113F9B090910C03A0910D03B0910E030196A11D2B
S113F9C0B11DEECE80EC0E945D788DE492E00E9441
S113F9D0A27880910B0390910C03A0910D03B09138
S113F9E00E030196A11DB11DDBCE81E00E945D785E
S113F9F095E89A95F1F7000080E80E945D7880E828
S113FA000E945D7880E992E00E94A27880EC0E94D6
S113FA105D7886EA92E00E94A2782FE789EB9AE269
S113FA20215080409040E1F700C0000081E00E9436
S113FA305D7825E82A95F1F7000080E80E945D785A
S113FA4080E80E945D788AEB92E00E94A27880ECC4
S113FA500E945D7880ED92E00E94A27881E080931C
S113FA6010031ECE40E0BECEFB01DC018D9101905F
S111FA7080190110D9F3990B0895F894FFCF73
S113FA7E70646174650075706461746520646F6E82
S113FA8E652E2020202020202020007265626F6FBA
S113FA9E74696E672E2E2E20202020202020200018
S113FAAE72656C6561736520627574746F6E732014
S113FABE2020200020202020202020202020202054
S113FACE2020202020007570646174657220726598
S113FADE61647920202020202000737461727420C8
S113FAEE6C6F7264796C696E6B202020202020006C
S113FAFE65786974207570646174657220202020A5
S113FB0E2020202020007265626F6F74696E672E4C
S113FB1E2E2E20202020202020202020006C6F72EA
S113FB2E64796C696E6B20202020202020202020F8
S113FB3E00636F6E6E656374656420202020202040
S113FB4E20202020007570646174657220202020AE
S113FB5E20202020202000656E61626C65642020C8
S113FB6E20202020202020200072656164696E67A9
S113FB7E206669726D776172652020002E2E2E200C
S113FB8E20202020202020202020002020202E2E67
S113FB9E2E20202020202020202000202020202065
S113FBAE202E2E2E20202020202020002020202039
S113FBBE20202020202E2E2E202020200020202029
S113FBCE2020202020202020202E2E2E20006F6B7F
S113FBDE00636865636B73756D206572726F722155
S113FBEE20202020202000747279696E67206167BE
S113FBFE61696E2E2E2E2E2E2E2020200065720070
S113FC0E636865636B73756D73206F6B20202020A2
S113FC1E20202020200066696C6520636F6D706C57
S113FC2E657465202020202020006275726E696E36
S113FC3E6720666C6173682020202020202020001D
S113FC4E646F6E2774207475726E206F6666202042
S113FC5E202020202020200073757265006C6F72A6
S113FC6E64790077686F5F69735F74686572653F66
S107FC7E202020001E
S9030304F5
