:10F000000C943E780C945B780C945B780C945B7851
:10F010000C945B780C945B780C945B780C945B7824
:10F020000C945B780C945B780C945B780C945B7814
:10F030000C945B780C945B780C945B780C945B7804
:10F040000C945B780C945B780C945B780C945B78F4
:10F050000C94FC7A0C945B780C945B780C945B7841
:10F060000C945B780C945B780C945B780C945B78D4
:10F070000C945B780C945B780C945B7811241FBE25
:10F08000CFEFD0E1DEBFCDBF12E0A0E0B1E0E8EF0E
:10F09000FAEF02C005900D92A839B107D9F723E025
:10F0A000A8E9B2E001C01D92A530B207E1F70E94C5
:10F0B000517A0C947A7D0C94007898B19F70282F27
:10F0C000207F922B98B94298439A36E03A95F1F70F
:10F0D00000C043989DE09A95F1F7000028B12F7089
:10F0E00030E1839FC0011124822B88B9439A86E0C6
:10F0F0008A95F1F700C043988FE097E20197F1F706
:10F1000000C0000008952FE58AEE90E02150804075
:10F110009040E1F700C0000082E00E945D7888E244
:10F120000E945D788CE00E945D7886E00E945D78A8
:10F1300081E00E945D788FE097E20197F1F700C0CF
:10F1400000000895FC019081992349F128B12F70A6
:10F15000907F922B98B9429A439A82E48A95F1F76C
:10F1600000C0439895E89A95F1F7000048B1919155
:10F1700080E1989F90011124942F9F70292B28B92A
:10F18000439A92E49A95F1F700C0439889EF90E092
:10F190000197F1F700C0000090819111D7CF089539
:10F1A0008CB58D658CBD8CB583608CBD8CB58F7D29
:10F1B0008CBD8CB58F778CBD2C9A2B9A0895CF92ED
:10F1C000DF92EF92FF920F931F936C01EE24FF24C6
:10F1D000072F182F292F3327299852E05EBD0DB431
:10F1E00007FEFDCFCEBC0DB407FEFDCF0EBD0DB4A6
:10F1F00007FEFDCF6EBD0DB407FEFDCF4EBD0DB4B5
:10F2000007FEFDCF299A1F910F91FF90EF90DF909D
:10F21000CF900895CF92DF92EF92FF920F931F93BA
:10F220006C01EE24FF24072F182F292F332729984C
:10F2300043E04EBD0DB407FEFDCFCEBC0DB407FEBE
:10F24000FDCF0EBD0DB407FEFDCF6EBD0DB407FEA4
:10F25000FDCF8FEF8EBD0DB407FEFDCF8EB5299A81
:10F260001F910F91FF90EF90DF90CF9008959093B2
:10F27000C5008093C400E1ECF0E080818860808369
:10F28000808180618083808180688083A0ECB0E091
:10F290008C9180688C938EE08093C200808180691D
:10F2A000808383B7817F83BF0895CF93DF93DC0191
:10F2B000EC0120E030E0FD0101900020E9F73197FA
:10F2C000EA1BFB0BE217F30751F089919091C00004
:10F2D00095FFFCCF8093C6002F5F3F4FECCFDF91AF
:10F2E000CF9108952F923F924F925F926F927F92AB
:10F2F0008F929F92AF92BF92CF92DF92EF92FF9246
:10F300000F931F93CF93DF93CDB7DEB760970FB600
:10F31000F894DEBF0FBECDBF2B013C01F89481E114
:10F3200080935700E895C301B20128EE33E040E036
:10F3300050E00E941A7DDA01C90140E1BE016F5F11
:10F340007F4F0E94457DCE0101960E94A2782FEF4B
:10F3500041E15AE7215040405040E1F700C0000031
:10F36000411451046104710409F454C0C12CD12C1E
:10F37000760101E007B600FCFDCFF999FECF16013A
:10F3800023E0F60120935700E89507B600FCFDCF77
:10F39000460157014FEF941AA40AB40AC701B601F7
:10F3A0000E940A79182FC701B6016F5F7F4F8F4FF8
:10F3B0009F4F0E940A79212F30E0F901F82BCF01ED
:10F3C00007B600FCFDCFF999FECFF6010C010093C2
:10F3D0005700E8951124F2E0CF0ED11CE11CF11C7E
:10F3E0008C149D04AE04BF04C9F607B600FCFDCF23
:10F3F000F999FECF25E0F10120935700E89507B673
:10F4000000FCFDCF84149504A604B70418F475011C
:10F410006401B0CF81E180935700E8958FE79AE1CE
:10F42000E6E081509040E040E1F700C0000081E05C
:10F430000E945D78F5E8FA95F1F7000080E80E94F7
:10F440005D7880E80E945D7888E291E00E94A27871
:10F4500080EC0E945D7887E391E00E94A2782FEF14
:10F4600048E05DE3215040405040E1F700C000001B
:10F4700060960FB6F894DEBF0FBECDBFDF91CF917F
:10F480001F910F91FF90EF90DF90CF90BF90AF90C2
:10F490009F908F907F906F905F904F903F902F90B4
:10F4A000089510B88FE081B912B88EEB84B98EE759
:10F4B0008AB98EEF87B98FEB85B918B88DE082B91C
:10F4C00085E190E00E9437790E94D0780E9483788D
:10F4D0002FE784E89EE1215080409040E1F700C092
:10F4E0000000789485E190E00E94377980B18071C6
:10F4F00080B9882309F478C09FB785B7282F216089
:10F5000025BF826085BF9FBF80E80E945D7887E449
:10F5100091E00E94A27880EC0E945D788BE591E0FA
:10F520000E94A27808C060E071E085EE92E00E943F
:10F530003C7D892BA1F167E872E08BEE92E00E949E
:10F540003C7D892B81F72FEF84E39CE021508040A4
:10F550009040E1F700C0000081E892E00E945579F8
:10F5600081E1E5EBF1E0ABEEB2E001900D928A951E
:10F57000E1F780E80E945D7881E791E00E94A2783F
:10F5800080EC0E945D7883E891E00E94A27860E0C0
:10F5900071E085EE92E00E943C7D892B61F62FEFB1
:10F5A00084E39CE0215080409040E1F700C00000DF
:10F5B0008CE792E00E94557986E0E0ECF1E0A5EE60
:10F5C000B2E001900D928A95E1F780E80E945D78A3
:10F5D00085E991E00E94A27880EC0E945D7885EA3E
:10F5E00091E00E94A278A7CFE0919802F091990251
:10F5F000099580E090E008951F920F920FB60F9248
:10F600001124EF92FF920F931F932F933F934F93E9
:10F610005F936F937F938F939F93AF93BF93CF939A
:10F62000DF93EF93FF938091C00087FFFCCF809121
:10F63000C6008093040380910403813209F4D6C08C
:10F64000809104038A3309F446C0809104038F3308
:10F6500009F4DBC080910403833709F44BC1809126
:10F6600004038B3209F472C1809104038D3209F4D2
:10F6700084C180910403873709F482C18091040317
:10F68000873A09F4BAC180910403853769F4E5EE3D
:10F69000F2E08091C00087FFFCCF8091C60081938B
:10F6A00082E0EA3EF807A9F7FF91EF91DF91CF9151
:10F6B000BF91AF919F918F917F916F915F914F918A
:10F6C0003F912F911F910F91FF90EF900F900FBEE0
:10F6D0000F901F9018958091C00087FFFCCF10916C
:10F6E000C60085E0810F1093A502C82FD0E08230BC
:10F6F00088F021E030E08091C00087FFFCCF80914E
:10F70000C600F901EB55FD4F80832F5F3F4FC217B5
:10F71000D30789F780919F029091A002A091A10246
:10F72000B091A20288379105A105B10509F476C010
:10F7300008F4ECC0803F9105A105B10509F40AC1A8
:10F74000883621E09207A105B10509F076C081E075
:10F7500090E0A0E0B0E080939F029093A002A0937D
:10F76000A102B093A2029E0121503109F901EB558B
:10F77000FD4F7081121613060CF05AC180E090E024
:10F7800040E050E0FC01EB55FD4F6081460F511DFC
:10F79000019682179307B1F74195741709F451C088
:10F7A0001092A30280E80E945D7880E192E00E94BE
:10F7B000A27880EC0E945D7886E292E00E94A278B6
:10F7C0009FE72AE186E0915020408040E1F700C0A9
:10F7D000000010929F021092A0021092A1021092BB
:10F7E000A2028BE392E00E9455795ECFEBEEF2E04D
:10F7F0002BEF32E08091C00087FFFCCF8091C600E4
:10F8000081932E173F07B1F74FCF8091A30281114B
:10F810006CC08BE392E00E94557946CF80EC0E9449
:10F820005D788AEE91E00E94A27880919F0290918B
:10F83000A002A091A102B091A2020196A11DB11D4A
:10F840008ACF81E08093A302112309F44EC0E12EF8
:10F85000F12C84E0E80EF11C04E010E0E801CB5547
:10F86000DD4F48816091FC027091FD028091FE02A3
:10F870009091FF020E94DF786091FC027091FD027E
:10F880008091FE029091FF020E940A79988189136B
:10F89000E8CF8091FC029091FD02A091FE02B09110
:10F8A000FF020196A11DB11D8093FC029093FD0201
:10F8B000A093FE02B093FF0280919B0290919C0264
:10F8C000A0919D02B0919E020196A11DB11D809351
:10F8D0009B0290939C02A0939D02B0939E020F5FA7
:10F8E0001F4FE016F10609F0B9CF8DE092E00E94BB
:10F8F0005579DACE109200031092010310920203A0
:10F900001092030381E080939A02CECE813091055C
:10F91000A105B10509F091CF80E80E945D7886ECE1
:10F9200091E00E94A27880EC0E945D7888ED91E0E1
:10F930000E94A27880919F029091A002A091A102C2
:10F94000B091A2020196A11DB11D05CF81E0809367
:10F95000A402AACE80EC0E945D788CEF91E00E9418
:10F96000A27880919F029091A002A091A102B091F3
:10F97000A2020196A11DB11DEECE1092A40294CE5A
:10F9800081E00E945D7895E89A95F1F7000080E8A3
:10F990000E945D7880E80E945D788EE392E00E948C
:10F9A000A2782FE789EB9AE2215080409040E1F75E
:10F9B00000C0000081E00E945D7825E82A95F1F7FB
:10F9C000000080E80E945D7880E80E945D7882E512
:10F9D00092E00E94A27880EC0E945D7887E692E037
:10F9E0000E94A27860919B0270919C0280919D027E
:10F9F00090919E020E94727957CE1092FC02109252
:10FA0000FD021092FE021092FF021092000310926B
:10FA10000103109202031092030310929B021092B2
:10FA20009C0210929D0210929E021092A3023CCE64
:10FA300040E0B3CEA1E21A2EAA1BBB1BFD010DC0F4
:10FA4000AA1FBB1FEE1FFF1FA217B307E407F5078E
:10FA500020F0A21BB30BE40BF50B661F771F881F6A
:10FA6000991F1A9469F760957095809590959B0100
:10FA7000AC01BD01CF010895FB01DC018D91019026
:10FA800080190110D9F3990B0895BB274A3031F43E
:10FA9000992322F4BDE2909581959F4F0C94517D5E
:10FAA000BB27FB015527AA27880F991FAA1FA41758
:10FAB00010F0A41B83955051B9F7A05DAA3308F04C
:10FAC000A95DA193009779F7B111B1931192CB0180
:10FAD0000C946A7DDC01FC01672F71917723E1F7BB
:10FAE000329704C07C916D9370836291AE17BF070B
:08FAF000C8F30895F894FFCF5C
:10FAF80070646174650076616C69646174696E67CD
:10FB080020666C61736800706C656173652077614D
:10FB18006974202020202000706C65617365207254
:10FB2800657374617274006C6F72647970686F6E5B
:10FB38002020202020200075706461746572207276
:10FB4800656164792020202020200073746172741C
:10FB5800206C6F7264796C696E6B202020202020E5
:10FB6800006C6F7264796C696E6B202020202020F5
:10FB7800202000636F6E6E6563746564202020200A
:10FB88002020202000757064617465722020202078
:10FB98002020202000656E61626C65642020202092
:10FBA800202020200020202020202020202020206D
:10FBB80020202020200072656164696E67206669D4
:10FBC8006C65202020202000706C656173652077AB
:10FBD800616974202020202020002020706C65613D
:10FBE8007365207761697420202020002020202060
:10FBF800706C65617365207761697420006F6B00B4
:10FC0800636865636B73756D206572726F7221200E
:10FC1800202020202000747279696E672061676156
:10FC2800696E2E2E2E2E2E2E2020006572006669FB
:10FC38006C6520636F6D706C6574652020202020D2
:10FC480020006275726E696E6720666C6173682049
:10FC580020202020202000646F6E27742074757285
:10FC68006E206F6666202020202020007375726544
:10FC7800006C6F7264790077686F5F69735F74688E
:08FC88006572653F2020200099
:0400000500800298DD
:00000001FF
