S0170000426F6F746C6F6164657250726F746F2E73726563EE
S113F0000C943E780C945B780C945B780C945B784D
S113F0100C945B780C945B780C945B780C945B7820
S113F0200C945B780C945B780C945B780C945B7810
S113F0300C945B780C945B780C945B780C945B7800
S113F0400C945B780C945B780C945B780C945B78F0
S113F0500C94D87A0C945B780C945B780C945B7861
S113F0600C945B780C945B780C945B780C945B78D0
S113F0700C945B780C945B780C945B7811241FBE21
S113F080CFEFD0E1DEBFCDBF12E0A0E0B1E0E6EF0C
S113F090F9EF02C005900D92A43AB107D9F723E025
S113F0A0A4EAB2E001C01D92A131B207E1F70E94C7
S113F0B0157A0C94F97C0C94007898B19F70282FE1
S113F0C0207F922B98B94298439A36E03A95F1F70B
S113F0D000C043989DE09A95F1F7000028B12F7085
S113F0E030E1839FC0011124822B88B9439A86E0C2
S113F0F08A95F1F700C043988FE097E20197F1F702
S113F10000C0000008952FE58AEE90E02150804071
S113F1109040E1F700C0000082E00E945D7888E240
S113F1200E945D788CE00E945D7886E00E945D78A4
S113F13081E00E945D788FE097E20197F1F700C0CB
S113F14000000895FC019081992349F128B12F70A2
S113F150907F922B98B9429A439A82E48A95F1F768
S113F16000C0439895E89A95F1F7000048B1919151
S113F17080E1989F90011124942F9F70292B28B926
S113F180439A92E49A95F1F700C0439889EF90E08E
S113F1900197F1F700C0000090819111D7CF089535
S113F1A08CB58D658CBD8CB583608CBD8CB58F7D25
S113F1B08CBD8CB58F778CBD2C9A2B9A0895CF92E9
S113F1C0DF92EF92FF920F931F936C01EE24FF24C2
S113F1D0072F182F292F3327299852E05EBD0DB42D
S113F1E007FEFDCFCEBC0DB407FEFDCF0EBD0DB4A2
S113F1F007FEFDCF6EBD0DB407FEFDCF4EBD0DB4B1
S113F20007FEFDCF299A1F910F91FF90EF90DF9099
S113F210CF900895CF92DF92EF92FF920F931F93B6
S113F2206C01EE24FF24072F182F292F3327299848
S113F23043E04EBD0DB407FEFDCFCEBC0DB407FEBA
S113F240FDCF0EBD0DB407FEFDCF6EBD0DB407FEA0
S113F250FDCF8FEF8EBD0DB407FEFDCF8EB5299A7D
S113F2601F910F91FF90EF90DF90CF9008959093AE
S113F270C5008093C400E1ECF0E080818860808365
S113F280808180618083808180688083A0ECB0E08D
S113F2908C9180688C938EE08093C2008081806919
S113F2A0808383B7817F83BF0895DC0180E0282FAA
S113F2B030E0FD0101900020E9F73197EA1BFB0BD8
S113F2C02E173F0761F0FD01E20FF31F208190919B
S113F2D0C00095FFFCCF2093C6008F5FE8CF089550
S113F2E06F927F928F929F92AF92BF92CF92DF9252
S113F2F0EF92FF920F931F93CF93DF93F89481E1E2
S113F30080935700E895C12CD12C760103E0D1E01D
S113F31015E007B600FCFDCFF999FECF3601F601E2
S113F32000935700E89507B600FCFDCF460157014E
S113F330FFEF9F1AAF0ABF0AC701B6010E940A79FC
S113F340C82FC701B6016F5F7F4F8F4F9F4F0E9439
S113F3500A792C2F30E0A901582BCA0107B600FC0A
S113F360FDCFF999FECFF6010C01D0935700E89533
S113F3701124F2E0CF0ED11CE11CF11C8C149D046D
S113F380AE04BF04C9F607B600FCFDCFF999FECF61
S113F390F30110935700E89507B600FCFDCF8114E4
S113F3A0F0EF9F06A104B10419F075016401B1CF17
S113F3B081E180935700E8952FE74AE156E0215018
S113F3C040405040E1F700C0000081E00E945D78B9
S113F3D085E88A95F1F7000080E80E945D7880E86E
S113F3E00E945D7886E091E00E94A27880EC0E9401
S113F3F05D7880E191E00E94A2789FEFE8E0FDE370
S113F4009150E040F040E1F700C00000DF91CF915F
S113F4101F910F91FF90EF90DF90CF90BF90AF902E
S113F4209F908F907F906F90089510B88FE081B96E
S113F43012B88EEB84B98EE78AB981E08BB98EEF6E
S113F44087B98FEB85B918B88DE082B985E190E072
S113F4500E9437790E94D0780E9483782FE784E84D
S113F4609EE1215080409040E1F700C00000789474
S113F47080B1807180B9882309F492C09FB785B7A1
S113F480282F216025BF826085BF9FBF80E80E942E
S113F4905D7880E291E00E94A27880EC0E945D7821
S113F4A084E391E00E94A27816C02FE78AE196E0F7
S113F4B0215080409040E1F700C0000060E071E01E
S113F4C081EF92E00E94F07C892B91F18091B0024F
S113F4D0813009F456C062E972E087EF92E00E943D
S113F4E0F07C892B11F72FEF84E39CE021508040BE
S113F4F09040E1F700C000008CE892E00E9455794A
S113F50081E1E6E9F1E0A7EFB2E001900D928A957E
S113F510E1F780E80E945D788AE491E00E94A27895
S113F52080EC0E945D788EE591E00E94A278BDCFC8
S113F5302FEF84E39CE0215080409040E1F700C02D
S113F540000087E892E00E94557986E0E1EAF1E064
S113F550A1EFB2E001900D928A95E1F780E80E9454
S113F5605D7882E791E00E94A27880EC0E945D7849
S113F57084E891E00E94A2788091B002813009F081
S113F580AACF0E947079F89485B7982F916095BF9F
S113F5908D7F85BFE091A402F091A50209959BCFD0
S113F5A0E091A402F091A502099580E090E008950D
S113F5B01F920F920FB60F921124EF92FF920F93A6
S113F5C01F932F933F934F935F936F937F938F93E7
S113F5D09F93AF93BF93CF93DF93EF93FF93809168
S113F5E0C00087FFFCCF8091C600809310038091F8
S113F5F01003813279F1809110038A33D1F1809123
S113F60010038F3309F4D9C080911003833709F4B0
S113F6104EC180911003873709F4AAC18091100369
S113F620853709F4D3C0FF91EF91DF91CF91BF915A
S113F630AF919F918F917F916F915F914F913F9186
S113F6402F911F910F91FF90EF900F900FBE0F908D
S113F6501F901895E7EFF2E027E033E08091C000B7
S113F66087FFFCCF8091C60081932E173F07B1F727
S113F670DACF8091A7029091A802A091A902B0913B
S113F680AA020196A11DB11D8093A7029093A8021E
S113F690A093A902B093AA028091C00087FFFCCF77
S113F6A01091C60085E0810F1093B102C82FD0E0FD
S113F6B0823088F021E030E08091C00087FFFCCFE9
S113F6C08091C600F901EF54FD4F80832F5F3F4FB7
S113F6D0C217D30789F78091AB029091AC02A09135
S113F6E0AD02B091AE02883C9105A105B10509F4C3
S113F6F0EAC008F4BDC0803921E09207A105B10534
S113F70009F423C1843F21E09207A105B10509F45E
S113F710FDC08C3221E09207A105B10509F4E6C0D1
S113F7200196A11DB11D8093AB029093AC02A093EE
S113F730AD02B093AE029E0121503109F901EF549C
S113F740FD4F7081121613060CF048C180E090E062
S113F75040E050E0FC01EF54FD4F6081460F511D25
S113F760019628173907B1F741957417E9F11092FA
S113F770AF0280E80E945D7880E192E00E94A27866
S113F78080EC0E945D7886E292E00E94A2789FE776
S113F7902AE186E0915020408040E1F700C000005B
S113F7A01092AB021092AC021092AD021092AE0213
S113F7B08CE392E00E94557936CF8091AF0281119B
S113F7C052C08CE392E00E9455792DCFE1EFF2E034
S113F7D08091C00087FFFCCF8091C600819382E0B6
S113F7E0E63FF807A9F71FCF81E08093AF0211230A
S113F7F0D1F1E12EF12C84E0E80EF11C04E010E0DC
S113F800E801CF54DD4F48816091080370910903EA
S113F81080910A0390910B030E94DF7860910803A2
S113F8207091090380910A0390910B030E940A7955
S113F83098818913E8CF8091080390910903A091DE
S113F8400A03B0910B030196A11DB11D8093080317
S113F85090930903A0930A03B0930B030F5F1F4F08
S113F860E016F10669F68DE092E00E945579DBCE50
S113F87081309105A105B10509F44DC08436910587
S113F880A105B10509F04CCF80EC0E945D7889ECAC
S113F89091E00E94A2788091AB029091AC02A09179
S113F8A0AD02B091AE020196A11DB11D3CCF1092E4
S113F8B00C0310920D0310920E0310920F0381E0BB
S113F8C08093A602B0CE80EC0E945D788AED91E030
S113F8D00E94A2788091AB029091AC02A091AD02FB
S113F8E0B091AE020196A11DB11D1DCF80EC0E9406
S113F8F05D788BEE91E00E94A2788091AB029091AA
S113F900AC02A091AD02B091AE020ACF81E090E0CA
S113F910A0E0B0E008CF80E80E945D7887EA91E03B
S113F9200E94A27880EC0E945D7888EB91E00E94AE
S113F930A2788091AB029091AC02A091AD02B091FB
S113F940AE020196A11DB11DEECE80EC0E945D7841
S113F9508CEF91E00E94A2788091AB029091AC026E
S113F960A091AD02B091AE020196A11DB11DDBCEF6
S113F97081E00E945D7895E89A95F1F7000080E8AF
S113F9800E945D7880E80E945D788FE392E00E9497
S113F990A2782FE789EB9AE2215080409040E1F76A
S113F9A000C0000081E00E945D7825E82A95F1F707
S113F9B0000080E80E945D7880E80E945D7887E519
S113F9C092E00E94A27880EC0E945D788FE692E03B
S113F9D00E94A27881E08093B00225CE40E0C5CE9B
S113F9E0FB01DC018D91019080190110D9F3990B71
S109F9F00895F894FFCF16
S113F9F67064617465007265626F6F74696E670026
S113FA066C6F72647970686F6E202020202020004D
S113FA167570646174657220726561647920202052
S113FA26202020007374617274206C6F7264796C88
S113FA36696E6B202020202020006C6F7264796C24
S113FA46696E6B2020202020202020202000636F58
S113FA566E6E65637465642020202020202020209B
S113FA662000757064617465722020202020202097
S113FA7620202000656E61626C65642020202020B1
S113FA86202020202000202020202020202020208C
S113FA9620202020202000726563656976696E67E0
S113FAA620646174612020002E2E2E202020202028
S113FAB62020202020202020002020202E2E2E2032
S113FAC6202020202020202020002020202020204C
S113FAD62E2E2E2020202020202000202020202012
S113FAE6202020202E2E2E20202020002020202002
S113FAF620202020202020202E2E2E20006F6B0078
S113FB06636865636B73756D206572726F7221200D
S113FB16202020202000747279696E672061676155
S113FB26696E2E2E2E2E2E2E202020006572006346
S113FB366F6D706C657465202020202020202020A5
S113FB462020202020200077726974696E67206661
S113FB5669726D7761726520202020202020006460
S113FB666F6E2774207475726E206F66662020206F
S113FB762020202020200073757265006C6F72644B
S113FB86790077686F5F69735F74686572653F2093
S107FB962020000027
S90302A456
