S0170000426F6F746C6F6164657250726F746F2E73726563EE
S113F0000C943E780C945B780C945B780C945B784D
S113F0100C945B780C945B780C945B780C945B7820
S113F0200C945B780C945B780C945B780C945B7810
S113F0300C945B780C945B780C945B780C945B7800
S113F0400C945B780C945B780C945B780C945B78F0
S113F0500C94257B0C945B780C945B780C945B7813
S113F0600C945B780C945B780C945B780C945B78D0
S113F0700C945B780C945B780C945B7811241FBE21
S113F080CFEFD0E1DEBFCDBF12E0A0E0B1E0ECE90C
S113F090FAEF02C005900D92A239B107D9F722E028
S113F0A0A2E9B2E001C01D92AF3FB207E1F70E94AE
S113F0B07F7A0C944C7D0C94007898B19F70282F23
S113F0C0207F922B98B94298439A36E03A95F1F70B
S113F0D000C043989DE09A95F1F7000028B12F7085
S113F0E030E1839FC0011124822B88B9439A86E0C2
S113F0F08A95F1F700C043988FE097E20197F1F702
S113F10000C0000008958FEF87B92FE58AEE90E0E4
S113F110215080409040E1F700C0000082E00E944E
S113F1205D7888E20E945D788CE00E945D7886E0DC
S113F1300E945D7881E00E945D788FE097E20197FC
S113F140F1F700C000000895FC019081992349F172
S113F15028B12F70907F922B98B9429A439A82E4F7
S113F1608A95F1F700C0439895E89A95F1F7000065
S113F17048B1919180E1989F90011124942F9F7040
S113F180292B28B9439A92E49A95F1F700C0439841
S113F19089EF90E00197F1F700C000009081911190
S113F1A0D7CF08958CB58D658CBD8CB583608CBD2F
S113F1B08CB58F7D8CBD8CB58F778CBD2C9A2B9A9A
S113F1C00895CF92DF92EF92FF920F931F936C01F9
S113F1D0EE24FF24072F182F292F33272B9852E0D2
S113F1E05EBD0DB407FEFDCFCEBC0DB407FEFDCF52
S113F1F00EBD0DB407FEFDCF6EBD0DB407FEFDCFF1
S113F2004EBD0DB407FEFDCF2B9A1F910F91FF90B9
S113F210EF90DF90CF900895CF92DF92EF92FF921C
S113F2200F931F936C01EE24FF24072F182F292F0F
S113F23033272B9843E04EBD0DB407FEFDCFCEBC63
S113F2400DB407FEFDCF0EBD0DB407FEFDCF6EBDA0
S113F2500DB407FEFDCF8FEF8EBD0DB407FEFDCFBD
S113F2608EB52B9A1F910F91FF90EF90DF90CF9066
S113F27008959093C5008093C400E1ECF0E0808190
S113F28088608083808180618083808180688083BE
S113F290A0ECB0E08C9180688C938EE08093C200E7
S113F2A080818069808383B7817F83BF0895CF93F2
S113F2B0DF93DC01EC0120E030E0FD01019000204F
S113F2C0E9F73197EA1BFB0BE217F30751F0899139
S113F2D09091C00095FFFCCF8093C6002F5F3F4FF5
S113F2E0ECCFDF91CF9108952FE78AE196E021508A
S113F2F080409040E1F700C0000081E00E945D780A
S113F30025E82A95F1F7000080E80E945D7880E8FE
S113F3100E945D7887E191E00E94A47880EC0E94CD
S113F3205D7888E291E00E94A478809195029091A2
S113F3309602A0919702B091980281E008952F92CD
S113F3403F924F925F926F927F928F929F92AF9271
S113F350BF92CF92DF92EF92FF920F931F93CF93BE
S113F360DF932B013C01769467945794479428E0EB
S113F370520E611C711CF89481E180935700E8954A
S113F380C12CD12C760113E0C1E0D5E007B600FC16
S113F390FDCFF999FECF1601F60110935700E895B9
S113F3A007B600FCFDCF46015701FFEF9F1AAF0AD5
S113F3B0BF0AC701B6010E940C79082FC701B60124
S113F3C06F5F7F4F8F4F9F4F0E940C79202F30E04B
S113F3D0A901582BCA0107B600FCFDCFF999FECF4D
S113F3E0F6010C01C0935700E8951124F2E0CF0E0A
S113F3F0D11CE11CF11C8C149D04AE04BF04C9F69D
S113F40007B600FCFDCFF999FECFF101D093570068
S113F410E89507B600FCFDCF84149504A604B70450
S113F42018F475016401B2CF0E947479811138C057
S113F43081E180935700E89581E00E945D78F5E8CA
S113F440FA95F1F7000080E80E945D7880E80E9458
S113F4505D7888E591E00E94A47880EC0E945D7854
S113F46084E691E00E94A4782FEF48E05DE3215008
S113F47040405040E1F700C00000DF91CF911F9160
S113F4800F91FF90EF90DF90CF90BF90AF909F903F
S113F4908F907F906F905F904F903F902F90089542
S113F4A081E180935700E895FFE72AE146E0F150B7
S113F4B020404040E1F700C0000081E00E945D78F8
S113F4C055E85A95F1F7000080E80E945D7880E8DD
S113F4D00E945D7889E391E00E94A47880EC0E9408
S113F4E05D7888E491E00E94A4788FEF98E0EDE3E2
S113F4F081509040E040E1F700C00000BECF8FE0B3
S113F50081B912B88FEB84B99EEF9AB991E09BB997
S113F51085B98DE082B985E190E00E9439790E9435
S113F520D2780E9483782FE784E89EE121508040BE
S113F5309040E1F700C00000789480B1807180B9F8
S113F540882309F47AC09FB785B7282F216025BF87
S113F550826085BF9FBF80E80E945D788EE691E05F
S113F5600E94A47880EC0E945D7880E891E00E947B
S113F570A47811C02FE78AE196E0215080409040A2
S113F580E1F700C0000060E071E08FED92E00E94BE
S113F590437D892B69F166E071E085EE92E00E947B
S113F5A0437D892B39F72FEF84E39CE02150804081
S113F5B09040E1F700C000008DE892E00E94577986
S113F5C081E1E1ECF1E0A5EEB2E001900D928A95C3
S113F5D0E1F780E80E945D7886E891E00E94A478D3
S113F5E080EC0E945D7886E991E00E94A478C2CF05
S113F5F02FEF84E39CE0215080409040E1F700C06D
S113F600000088E892E00E94577986E0ECECF1E093
S113F610AFEDB2E001900D928A95E1F780E80E9487
S113F6205D7886EA91E00E94A47880EC0E945D787F
S113F63084EB91E00E94A478AECFE0919202F09125
S113F6409302099580E090E008951F920F920FB6FF
S113F6500F921124EF92FF920F931F932F933F93D6
S113F6604F935F936F937F938F939F93AF93BF93C6
S113F670CF93DF93EF93FF938091C00087FFFCCF7C
S113F6808091C6008093FE028091FE02813209F4CB
S113F690D6C08091FE028A3309F446C08091FE02EE
S113F6A08F3309F4DBC08091FE02833709F44BC128
S113F6B08091FE028B3209F472C18091FE028D3278
S113F6C009F484C18091FE02873709F482C18091D4
S113F6D0FE02873A09F4BAC18091FE02853769F4C3
S113F6E0EFEDF2E08091C00087FFFCCF8091C6006F
S113F6F0819382E0E43EF807A9F7FF91EF91DF914F
S113F700CF91BF91AF919F918F917F916F915F91B5
S113F7104F913F912F911F910F91FF90EF900F9078
S113F7200FBE0F901F9018958091C00087FFFCCFEB
S113F7301091C60085E0810F10939F02C82FD0E07E
S113F740823088F021E030E08091C00087FFFCCF58
S113F7508091C600F901E156FD4F80832F5F3F4F32
S113F760C217D30789F78091990290919A02A091C8
S113F7709B02B0919C0288379105A105B10509F45B
S113F78076C008F4ECC0803F9105A105B10509F4E9
S113F7900AC1883621E09207A105B10509F076C0B7
S113F7A081E090E0A0E0B0E08093990290939A0207
S113F7B0A0939B02B0939C029E0121503109F90150
S113F7C0E156FD4F7081121613060CF05AC180E009
S113F7D090E040E050E0FC01E156FD4F6081460FAF
S113F7E0511D019682179307B1F74195741709F4D7
S113F7F051C010929D0280E80E945D788CE192E0F5
S113F8000E94A47880EC0E945D7882E392E00E94DA
S113F810A4789FE72AE186E0915020408040E1F7F8
S113F82000C000001092990210929A0210929B025A
S113F83010929C0287E492E00E9457795ECFE5EE35
S113F840F2E025EF32E08091C00087FFFCCF809189
S113F850C60081932E173F07B1F74FCF80919D02C9
S113F86081116CC087E492E00E94577946CF80EC06
S113F8700E945D7886EF91E00E94A47880919902BD
S113F88090919A02A0919B02B0919C020196A11DB5
S113F890B11D8ACF81E080939D02112309F44EC0EB
S113F8A0E12EF12C84E0E80EF11C04E010E0E80104
S113F8B0C156DD4F48816091F6027091F702809144
S113F8C0F8029091F9020E94E1786091F602709139
S113F8D0F7028091F8029091F9020E940C799881C4
S113F8E08913E8CF8091F6029091F702A091F80273
S113F8F0B091F9020196A11DB11D8093F602909377
S113F900F702A093F802B093F902809195029091C6
S113F9109602A0919702B09198020196A11DB11D83
S113F9208093950290939602A0939702B0939802C5
S113F9300F5F1F4FE016F10609F0B9CF89E192E09D
S113F9400E945779DACE1092FA021092FB021092BA
S113F950FC021092FD0281E080939402CECE8130AD
S113F9609105A105B10509F091CF80E80E945D7869
S113F97082ED91E00E94A47880EC0E945D7884EE90
S113F98091E00E94A4788091990290919A02A091AA
S113F9909B02B0919C020196A11DB11D05CF81E08F
S113F9A080939E02AACE80EC0E945D7888E092E06B
S113F9B00E94A4788091990290919A02A0919B024E
S113F9C0B0919C020196A11DB11DEECE10929E0233
S113F9D094CE81E00E945D7895E89A95F1F7000055
S113F9E080E80E945D7880E80E945D788AE492E075
S113F9F00E94A4782FE789EB9AE22150804090403E
S113FA00E1F700C0000081E00E945D7825E82A95B6
S113FA10F1F7000080E80E945D7880E80E945D783C
S113FA208EE592E00E94A47880EC0E945D7883E7E2
S113FA3092E00E94A4786091950270919602809160
S113FA409702909198020E949F7957CE1092F602E5
S113FA501092F7021092F8021092F9021092FA0230
S113FA601092FB021092FC021092FD021092950279
S113FA7010929602109297021092980210929D0290
S113FA803CCE40E0B3CEFB01DC018D9101908019A6
S10FFA900110D9F3990B0895F894FFCFEE
S113FA9C706461746500632B2B2069732067726535
S113FAAC6174212020200076616C69646174696E34
S113FABC6720666C61736800706C65617365207790
S113FACC616974202020202000706C6561736520AE
S113FADC72657374617274006C6F72647970686FA0
S113FAEC6E20202020202000466C61736820457213
S113FAFC726F720074727920616761696E0075703F
S113FB0C6461746572207265616479202020200020
S113FB1C7374617274206C6F7264796C696E6B208F
S113FB2C202020202000636F6E6E65637465642052
S113FB3C20202020200075706461746572202020C0
S113FB4C20202000656E61626C65642020202020DA
S113FB5C00202020202020202020202020202020B5
S113FB6C200072656164696E672066696C6520208B
S113FB7C20202000706C65617365207761697420A6
S113FB8C2020202020002020706C65617365207774
S113FB9C616974202020200020202020706C656175
S113FBAC7365207761697420006F6B00636865630B
S113FBBC6B73756D206572726F722120202020206A
S113FBCC2000747279696E6720616761696E2E2EEC
S113FBDC2E2E2E2E20200065720066696C65206323
S113FBEC6F6D706C65746520202020202000627578
S113FBFC726E696E6720666C617368202020202009
S113FC0C202000646F6E2774207475726E206F66EA
S113FC1C66202020202020007375726500594553FE
S105FC2C2100B1
S903029268
