S0170000426F6F746C6F6164657250726F746F2E73726563EE
S113F0000C943E780C945B780C945B780C945B784D
S113F0100C945B780C945B780C945B780C945B7820
S113F0200C945B780C945B780C945B780C945B7810
S113F0300C945B780C945B780C945B780C945B7800
S113F0400C945B780C945B780C945B780C945B78F0
S113F0500C94C27A0C945B780C945B780C945B7877
S113F0600C945B780C945B780C945B780C945B78D0
S113F0700C945B780C945B780C945B7811241FBE21
S113F080CFEFD0E1DEBFCDBF12E0A0E0B1E0E4E716
S113F090F9EF02C005900D92A236B107D9F722E02C
S113F0A0A2E6B2E001C01D92AF3CB207E1F70E94B4
S113F0B0177A0C94B87C0C94007898B19F70282F20
S113F0C0207F922B98B94298439A36E03A95F1F70B
S113F0D000C043989DE09A95F1F7000028B12F7085
S113F0E030E1839FC0011124822B88B9439A86E0C2
S113F0F08A95F1F700C043988FE097E20197F1F702
S113F10000C0000008952FE58AEE90E02150804071
S113F1109040E1F700C0000082E00E945D7888E240
S113F1200E945D788CE00E945D7886E00E945D78A4
S113F13081E00E945D788FE097E20197F1F700C0CB
S113F14000000895FC019081992349F128B12F70A2
S113F150907F922B98B9429A439A82E48A95F1F768
S113F16000C0439895E89A95F1F7000048B1919151
S113F17080E1989F90011124942F9F70292B28B926
S113F180439A92E49A95F1F700C0439889EF90E08E
S113F1900197F1F700C0000090819111D7CF089535
S113F1A08CB58D658CBD8CB583608CBD8CB58F7D25
S113F1B08CBD8CB58F778CBD2C9A2B9A0895CF92E9
S113F1C0DF92EF92FF920F931F936C01EE24FF24C2
S113F1D0072F182F292F3327299852E05EBD0DB42D
S113F1E007FEFDCFCEBC0DB407FEFDCF0EBD0DB4A2
S113F1F007FEFDCF6EBD0DB407FEFDCF4EBD0DB4B1
S113F20007FEFDCF299A1F910F91FF90EF90DF9099
S113F210CF900895CF92DF92EF92FF920F931F93B6
S113F2206C01EE24FF24072F182F292F3327299848
S113F23043E04EBD0DB407FEFDCFCEBC0DB407FEBA
S113F240FDCF0EBD0DB407FEFDCF6EBD0DB407FEA0
S113F250FDCF8FEF8EBD0DB407FEFDCF8EB5299A7D
S113F2601F910F91FF90EF90DF90CF9008959093AE
S113F270C5008093C400E1ECF0E080818860808365
S113F280808180618083808180688083A0ECB0E08D
S113F2908C9180688C938EE08093C2008081806919
S113F2A0808383B7817F83BF0895CF93DF93DC018D
S113F2B0EC0120E030E0FD0101900020E9F73197F6
S113F2C0EA1BFB0BE217F30751F089919091C00000
S113F2D095FFFCCF8093C6002F5F3F4FECCFDF91AB
S113F2E0CF9108956F927F928F929F92AF92BF9227
S113F2F0CF92DF92EF92FF920F931F93CF93DF93FE
S113F300F89481E180935700E895C12CD12C7601C3
S113F31003E0D1E015E007B600FCFDCFF999FECF7C
S113F3203601F60100935700E89507B600FCFDCFBF
S113F33046015701FFEF9F1AAF0ABF0AC701B60182
S113F3400E940A79C82FC701B6016F5F7F4F8F4FA4
S113F3509F4F0E940A792C2F30E0A901582BCA0133
S113F36007B600FCFDCFF999FECFF6010C01D0934E
S113F3705700E8951124F2E0CF0ED11CE11CF11CDA
S113F3808C149D04AE04BF04C9F607B600FCFDCF7F
S113F390F999FECFF30110935700E89507B600FCE6
S113F3A0FDCF8114F0EF9F06A104B10419F075019B
S113F3B06401B1CF81E180935700E8952FE74AE1DA
S113F3C056E0215040405040E1F700C0000081E089
S113F3D00E945D7885E88A95F1F7000080E80E9434
S113F3E05D7880E80E945D7886E091E00E94A278D2
S113F3F080EC0E945D7885E191E00E94A2789FEF05
S113F400E8E0FDE39150E040F040E1F700C0000087
S113F410DF91CF911F910F91FF90EF90DF90CF90EC
S113F420BF90AF909F908F907F906F90089510B889
S113F4308FE081B912B88EEB84B98EE78AB98EEF6A
S113F44087B98FEB85B918B88DE082B985E190E072
S113F4500E9437790E94D0780E9483782FE784E84D
S113F4609EE1215080409040E1F700C00000789474
S113F47085E190E00E94377980B1807180B988235A
S113F48009F478C09FB785B7282F216025BF826013
S113F49085BF9FBF80E80E945D7885E291E00E946D
S113F4A0A27880EC0E945D7889E391E00E94A278C2
S113F4B008C060E071E08FEA92E00E94AF7C892B83
S113F4C0A1F160E572E085EB92E00E94AF7C892BAC
S113F4D081F72FEF84E39CE0215080409040E1F7D6
S113F4E000C000008AE492E00E94557981E1E3E9DA
S113F4F0F1E0A5EBB2E001900D928A95E1F780E886
S113F5000E945D788FE491E00E94A27880EC0E94D2
S113F5105D7881E691E00E94A27860E071E08FEA74
S113F52092E00E94AF7C892B61F62FEF84E39CE08C
S113F530215080409040E1F700C0000085E492E053
S113F5400E94557986E0EEE9F1E0AFEAB2E001907D
S113F5500D928A95E1F780E80E945D7883E791E057
S113F5600E94A27880EC0E945D7883E891E00E947A
S113F570A278A7CFE0916202F0916302099580E03E
S113F58090E008951F920F920FB60F921124EF92FC
S113F590FF920F931F932F933F934F935F936F9318
S113F5A07F938F939F93AF93BF93CF93DF93EF9307
S113F5B0FF938091C00087FFFCCF8091C6008093A9
S113F5C0CE028091CE02813209F446C08091CE02EF
S113F5D08A3309F450C08091CE028F3309F4E9C014
S113F5E08091CE02833709F444C18091CE028B32DC
S113F5F009F46BC18091CE028D3209F47DC18091F2
S113F600CE02873709F47BC18091CE02853769F435
S113F610EFEAF2E08091C00087FFFCCF8091C60042
S113F620819382E0E43BF807A9F7FF91EF91DF9122
S113F630CF91BF91AF919F918F917F916F915F9186
S113F6404F913F912F911F910F91FF90EF900F9049
S113F6500FBE0F901F901895E5EBF2E025EC32E019
S113F6608091C00087FFFCCF8091C60081932E1744
S113F6703F07B1F7DACF8091650290916602A091BD
S113F6806702B09168020196A11DB11D80936502C5
S113F69090936602A0936702B09368028091C000C1
S113F6A087FFFCCF1091C60085E0810F10936F0295
S113F6B0C82FD0E0823088F021E030E08091C00093
S113F6C087FFFCCF8091C600F901E159FD4F80838B
S113F6D02F5F3F4FC217D30789F78091690290913A
S113F6E06A02A0916B02B0916C0288379105A10562
S113F6F0B10509F467C008F4C8C0803F9105A105AD
S113F700B10509F4E6C0883621E09207A105B105E8
S113F71009F067C081E090E0A0E0B0E08093690266
S113F72090936A02A0936B02B0936C029E012150E5
S113F7303109F901E159FD4F7081121613060CF0DD
S113F7400CC180E090E040E050E0FC01E159FD4F45
S113F7506081460F511D019682179307B1F74195B9
S113F760741709F442C010926D0280E80E945D781B
S113F7708EEE91E00E94A27880EC0E945D7884E095
S113F78092E00E94A2789FE72AE186E0915020400F
S113F7908040E1F700C000001092690210926A02F2
S113F7A010926B0210926C0289E192E00E945579EA
S113F7B03CCF80916D02811157C089E192E00E9493
S113F7C0557933CF80EC0E945D7888EC91E00E94FB
S113F7D0A2788091690290916A02A0916B02B09123
S113F7E06C020196A11DB11D99CF81E080936D0239
S113F7F01123D1F1E12EF12C84E0E80EF11C04E098
S113F80010E0E801C159DD4F48816091C602709152
S113F810C7028091C8029091C9020E94DF7860916A
S113F820C6027091C7028091C8029091C9020E94D9
S113F8300A7998818913E8CF8091C6029091C70212
S113F840A091C802B091C9020196A11DB11D809377
S113F850C6029093C702A093C802B093C9020F5F77
S113F8601F4FE016F10669F68BEE91E00E94557980
S113F870DCCE1092CA021092CB021092CC021092EB
S113F880CD0281E080936402D0CE81309105A10540
S113F890B10509F0A6CF80E80E945D7884EA91E082
S113F8A00E94A27880EC0E945D7886EB91E00E9431
S113F8B0A2788091690290916A02A0916B02B09142
S113F8C06C020196A11DB11D29CF81E080936E02C7
S113F8D0ACCE80EC0E945D788AED91E00E94A27823
S113F8E08091690290916A02A0916B02B0916C02BE
S113F8F00196A11DB11D12CF10926E0296CE81E029
S113F9000E945D7895E89A95F1F7000080E80E94DE
S113F9105D7880E80E945D788CE192E00E94A27894
S113F9202FE789EB9AE2215080409040E1F700C034
S113F930000081E00E945D7825E82A95F1F7000037
S113F94080E80E945D7880E80E945D7880E392E020
S113F9500E94A2780E94727968CE40E001CFFB0138
S113F960DC018D91019080190110D9F3990B089550
S107F970F894FFCF35
S113F974706461746500706C65617365207265738D
S113F98474617274006C6F72647970686F6E202095
S113F9942020202000757064617465722072656192
S113F9A46479202020202020007374617274206CF8
S113F9B46F7264796C696E6B202020202020006CA7
S113F9C46F7264796C696E6B2020202020202020C3
S113F9D400636F6E6E6563746564202020202020AC
S113F9E4202000757064617465722020202020201A
S113F9F4202000656E61626C656420202020202034
S113FA04202000202020202020202020202020200E
S113FA142020200072656164696E672066696C65E4
S113FA24202020202000706C656173652077616953
S113FA3474202020202020002020706C65617365D0
S113FA442077616974202020200020202020706CFD
S113FA5465617365207761697420006F6B00636866
S113FA6465636B73756D206572726F72212020203B
S113FA7420202000747279696E6720616761696E61
S113FA842E2E2E2E2E2E20200065720066696C65A3
S113FA9420636F6D706C6574652020202020200025
S113FAA46275726E696E6720666C617368202020CB
S113FAB4202020200073757265006C6F72647900D5
S113FAC477686F5F69735F74686572653F2020208F
S105FAD400002C
S903026298
